{
  "contractName": "Debate1",
  "abi": [
    {
      "constant": true,
      "inputs": [],
      "name": "candidatesCount",
      "outputs": [
        {
          "name": "",
          "type": "uint256"
        }
      ],
      "payable": false,
      "stateMutability": "view",
      "type": "function"
    },
    {
      "constant": true,
      "inputs": [
        {
          "name": "",
          "type": "uint256"
        }
      ],
      "name": "candidates",
      "outputs": [
        {
          "name": "id",
          "type": "uint256"
        },
        {
          "name": "name",
          "type": "string"
        },
        {
          "name": "voteCount",
          "type": "uint256"
        }
      ],
      "payable": false,
      "stateMutability": "view",
      "type": "function"
    },
    {
      "constant": true,
      "inputs": [
        {
          "name": "",
          "type": "address"
        }
      ],
      "name": "voters",
      "outputs": [
        {
          "name": "",
          "type": "bool"
        }
      ],
      "payable": false,
      "stateMutability": "view",
      "type": "function"
    },
    {
      "inputs": [],
      "payable": false,
      "stateMutability": "nonpayable",
      "type": "constructor"
    },
    {
      "anonymous": false,
      "inputs": [
        {
          "indexed": true,
          "name": "_candidateId",
          "type": "uint256"
        }
      ],
      "name": "votedEvent",
      "type": "event"
    },
    {
      "constant": false,
      "inputs": [
        {
          "name": "_candidateId",
          "type": "uint256"
        }
      ],
      "name": "vote",
      "outputs": [],
      "payable": false,
      "stateMutability": "nonpayable",
      "type": "function"
    }
  ],
  "bytecode": "0x608060405234801561001057600080fd5b506100556040518060400160405280600e81526020017f42696c6c20646520426c6173696f0000000000000000000000000000000000008152506102be60201b60201c565b6100996040518060400160405280600881526020017f54696d205279616e0000000000000000000000000000000000000000000000008152506102be60201b60201c565b6100dd6040518060400160405280600e81526020017f4a756c69c3a16e2043617374726f0000000000000000000000000000000000008152506102be60201b60201c565b6101216040518060400160405280600b81526020017f436f727920426f6f6b65720000000000000000000000000000000000000000008152506102be60201b60201c565b6101656040518060400160405280601081526020017f456c697a61626574682057617272656e000000000000000000000000000000008152506102be60201b60201c565b6101a96040518060400160405280600d81526020017f4265746f204f27526f75726b65000000000000000000000000000000000000008152506102be60201b60201c565b6101ed6040518060400160405280600d81526020017f416d79204b6c6f627563686172000000000000000000000000000000000000008152506102be60201b60201c565b6102316040518060400160405280600d81526020017f54756c73692047616262617264000000000000000000000000000000000000008152506102be60201b60201c565b6102756040518060400160405280600a81526020017f4a617920496e736c6565000000000000000000000000000000000000000000008152506102be60201b60201c565b6102b96040518060400160405280600c81526020017f4a6f686e2044656c616e657900000000000000000000000000000000000000008152506102be60201b60201c565b6103df565b60026000815480929190600101919050555060405180606001604052806002548152602001828152602001600081525060016000600254815260200190815260200160002060008201518160000155602082015181600101908051906020019061032992919061033a565b506040820151816002015590505050565b828054600181600116156101000203166002900490600052602060002090601f016020900481019282601f1061037b57805160ff19168380011785556103a9565b828001600101855582156103a9579182015b828111156103a857825182559160200191906001019061038d565b5b5090506103b691906103ba565b5090565b6103dc91905b808211156103d85760008160009055506001016103c0565b5090565b90565b6103e0806103ee6000396000f3fe608060405234801561001057600080fd5b506004361061004c5760003560e01c80630121b93f146100515780632d35a8a21461007f5780633477ee2e1461009d578063a3ec138d14610152575b600080fd5b61007d6004803603602081101561006757600080fd5b81019080803590602001909291905050506101ae565b005b6100876102cc565b6040518082815260200191505060405180910390f35b6100c9600480360360208110156100b357600080fd5b81019080803590602001909291905050506102d2565b6040518084815260200180602001838152602001828103825284818151815260200191508051906020019080838360005b838110156101155780820151818401526020810190506100fa565b50505050905090810190601f1680156101425780820380516001836020036101000a031916815260200191505b5094505050505060405180910390f35b6101946004803603602081101561016857600080fd5b81019080803573ffffffffffffffffffffffffffffffffffffffff169060200190929190505050610394565b604051808215151515815260200191505060405180910390f35b6000803373ffffffffffffffffffffffffffffffffffffffff1673ffffffffffffffffffffffffffffffffffffffff16815260200190815260200160002060009054906101000a900460ff161561020457600080fd5b60008111801561021657506002548111155b61021f57600080fd5b60016000803373ffffffffffffffffffffffffffffffffffffffff1673ffffffffffffffffffffffffffffffffffffffff16815260200190815260200160002060006101000a81548160ff0219169083151502179055506001600082815260200190815260200160002060020160008154809291906001019190505550807ffff3c900d938d21d0990d786e819f29b8d05c1ef587b462b939609625b684b1660405160405180910390a250565b60025481565b6001602052806000526040600020600091509050806000015490806001018054600181600116156101000203166002900480601f0160208091040260200160405190810160405280929190818152602001828054600181600116156101000203166002900480156103845780601f1061035957610100808354040283529160200191610384565b820191906000526020600020905b81548152906001019060200180831161036757829003601f168201915b5050505050908060020154905083565b60006020528060005260406000206000915054906101000a900460ff168156fea165627a7a72305820cc9941ef3cb590b723e74c8693f86b9efe76a746ebb0480c06d083f1c2481bc00029",
  "source": "pragma solidity ^0.5.8;\n\ncontract Debate1 {\n    // Model a Candidate\n    struct Candidate {\n        uint id;\n        string name;\n        uint voteCount;\n    }\n\n    // Store accounts that have voted\n    mapping(address => bool) public voters;\n    // Store Candidates\n    // Fetch Candidate\n    mapping(uint => Candidate) public candidates;\n    // Store Candidates Count\n    uint public candidatesCount;\n\n    // voted event\n    event votedEvent (\n        uint indexed _candidateId\n    );\n\n    constructor() public {\n        addCandidate(\"Bill de Blasio\");\n        addCandidate(\"Tim Ryan\");\n        addCandidate(\"Juli치n Castro\");\n        addCandidate(\"Cory Booker\");\n        addCandidate(\"Elizabeth Warren\");\n        addCandidate(\"Beto O'Rourke\");\n        addCandidate(\"Amy Klobuchar\");\n        addCandidate(\"Tulsi Gabbard\");\n        addCandidate(\"Jay Inslee\");\n        addCandidate(\"John Delaney\");\n    }\n\n    function addCandidate (string memory _name) private {\n        candidatesCount ++;\n        candidates[candidatesCount] = Candidate(candidatesCount, _name, 0);\n    }\n\n    function vote (uint _candidateId) public {\n        // require that they haven't voted before\n        require(!voters[msg.sender]);\n\n        // require a valid candidate\n        require(_candidateId > 0 && _candidateId <= candidatesCount);\n\n        // record that voter has voted\n        voters[msg.sender] = true;\n\n        // update candidate vote Count\n        candidates[_candidateId].voteCount ++;\n\n        // trigger voted event\n        emit votedEvent(_candidateId);\n    }\n}\n",
  "sourcePath": "/Users/destinyross/Dev/election_react/contracts/Debate1.sol",
  "compiler": {
    "name": "solc",
    "version": "0.5.8+commit.23d335f2.Emscripten.clang"
  },
  "schemaVersion": "3.0.11",
  "updatedAt": "2019-06-23T23:55:47.358Z",
  "devdoc": {
    "methods": {}
  },
  "userdoc": {
    "methods": {}
  }
}